:020000040000FA
:10000000080400200D000000110000000148004716
:10001000FEE700001900000040F2A000C0F200005E
:100020001C494FF002024FF0020300F001F8F3E721
:100030002DE9F04104460D4616461F4600F004F82F
:1000400000F011F8BDE8F08100F006F81F4605F158
:100050000A05013EF8D1704754F8048B45F8048B2B
:10006000013FF9D17047A2F101080B46A2F1010648
:10007000D3E90045AC4201D2C3E9005403F10403C3
:10008000013EF5D1B8F10108EFD100F000F8FFF71B
:10009000FEFF000000000020000000000000000043
:1000A000AE47813FC3F5A83EB81E453F713DAA3F0C
:0800B000000000000000000048
:040000050000000DEA
:00000001FF
