:020000040000FA
:10000000080400200D000000110000000148004716
:10001000FEE700001900000040F29000C0F200006E
:100020001A494FF002024FF0020300F001F8F3E723
:100030002DE9F04104460D4616461F4600F004F82F
:1000400000F00EF8BDE8F08154F8048B45F8048BFD
:10005000013FF9D11F4605F11005013EF4D170476B
:10006000A2F101070B46A2F10106D3E90045AC421B
:1000700001D2C3E9005403F10403013EF5D1013F6D
:10008000F0D100F000F8FFF7FEFF000000000020B4
:10009000AE47813FC3F5A83EB81E453F713DAA3F1C
:0800A000000000000000000058
:040000050000000DEA
:00000001FF
