:020000040000FA
:10000000080400200D000000110000000148004716
:10001000FEE700001900000040F2B000C0F200004E
:1000200021494FF002024FF0020300F001F8F3E71C
:100030002DE9F04104460D4616461F4600F004F82F
:1000400000F00EF8BDE8F08154F8048B45F8048BFD
:10005000013FF9D11F4605F11005013EF4D170476B
:100060000B461646A2F1010700F005F80B4603F116
:100070000403A2F101071C6803F118031D68AC42D8
:1000800007D253F8188953F8009B43F8188B43F8AC
:10009000049B03F10403013FE8D1013EE6D100F0E7
:1000A00000F8FFF7FEFF0000000000200000000045
:1000B000AE47813FC3F5A83EB81E453F713DAA3FFC
:0800C000000000000000000038
:040000050000000DEA
:00000001FF
